{
  "_format": "hh-sol-artifact-1",
  "contractName": "VehicleRegistration",
  "sourceName": "contracts/RegisterVehicle.sol",
  "abi": [
    {
      "inputs": [],
      "stateMutability": "nonpayable",
      "type": "constructor"
    },
    {
      "inputs": [
        {
          "internalType": "address",
          "name": "sender",
          "type": "address"
        },
        {
          "internalType": "uint256",
          "name": "tokenId",
          "type": "uint256"
        },
        {
          "internalType": "address",
          "name": "owner",
          "type": "address"
        }
      ],
      "name": "ERC721IncorrectOwner",
      "type": "error"
    },
    {
      "inputs": [
        {
          "internalType": "address",
          "name": "operator",
          "type": "address"
        },
        {
          "internalType": "uint256",
          "name": "tokenId",
          "type": "uint256"
        }
      ],
      "name": "ERC721InsufficientApproval",
      "type": "error"
    },
    {
      "inputs": [
        {
          "internalType": "address",
          "name": "approver",
          "type": "address"
        }
      ],
      "name": "ERC721InvalidApprover",
      "type": "error"
    },
    {
      "inputs": [
        {
          "internalType": "address",
          "name": "operator",
          "type": "address"
        }
      ],
      "name": "ERC721InvalidOperator",
      "type": "error"
    },
    {
      "inputs": [
        {
          "internalType": "address",
          "name": "owner",
          "type": "address"
        }
      ],
      "name": "ERC721InvalidOwner",
      "type": "error"
    },
    {
      "inputs": [
        {
          "internalType": "address",
          "name": "receiver",
          "type": "address"
        }
      ],
      "name": "ERC721InvalidReceiver",
      "type": "error"
    },
    {
      "inputs": [
        {
          "internalType": "address",
          "name": "sender",
          "type": "address"
        }
      ],
      "name": "ERC721InvalidSender",
      "type": "error"
    },
    {
      "inputs": [
        {
          "internalType": "uint256",
          "name": "tokenId",
          "type": "uint256"
        }
      ],
      "name": "ERC721NonexistentToken",
      "type": "error"
    },
    {
      "inputs": [
        {
          "internalType": "address",
          "name": "owner",
          "type": "address"
        }
      ],
      "name": "OwnableInvalidOwner",
      "type": "error"
    },
    {
      "inputs": [
        {
          "internalType": "address",
          "name": "account",
          "type": "address"
        }
      ],
      "name": "OwnableUnauthorizedAccount",
      "type": "error"
    },
    {
      "anonymous": false,
      "inputs": [
        {
          "indexed": true,
          "internalType": "address",
          "name": "owner",
          "type": "address"
        },
        {
          "indexed": true,
          "internalType": "address",
          "name": "approved",
          "type": "address"
        },
        {
          "indexed": true,
          "internalType": "uint256",
          "name": "tokenId",
          "type": "uint256"
        }
      ],
      "name": "Approval",
      "type": "event"
    },
    {
      "anonymous": false,
      "inputs": [
        {
          "indexed": true,
          "internalType": "address",
          "name": "owner",
          "type": "address"
        },
        {
          "indexed": true,
          "internalType": "address",
          "name": "operator",
          "type": "address"
        },
        {
          "indexed": false,
          "internalType": "bool",
          "name": "approved",
          "type": "bool"
        }
      ],
      "name": "ApprovalForAll",
      "type": "event"
    },
    {
      "anonymous": false,
      "inputs": [
        {
          "indexed": false,
          "internalType": "uint256",
          "name": "_fromTokenId",
          "type": "uint256"
        },
        {
          "indexed": false,
          "internalType": "uint256",
          "name": "_toTokenId",
          "type": "uint256"
        }
      ],
      "name": "BatchMetadataUpdate",
      "type": "event"
    },
    {
      "anonymous": false,
      "inputs": [
        {
          "indexed": true,
          "internalType": "address",
          "name": "province",
          "type": "address"
        },
        {
          "indexed": true,
          "internalType": "address",
          "name": "district",
          "type": "address"
        }
      ],
      "name": "DistrictPoliceAdded",
      "type": "event"
    },
    {
      "anonymous": false,
      "inputs": [
        {
          "indexed": true,
          "internalType": "address",
          "name": "province",
          "type": "address"
        },
        {
          "indexed": true,
          "internalType": "address",
          "name": "district",
          "type": "address"
        }
      ],
      "name": "DistrictPoliceRemoved",
      "type": "event"
    },
    {
      "anonymous": false,
      "inputs": [
        {
          "indexed": false,
          "internalType": "uint256",
          "name": "_tokenId",
          "type": "uint256"
        }
      ],
      "name": "MetadataUpdate",
      "type": "event"
    },
    {
      "anonymous": false,
      "inputs": [
        {
          "indexed": true,
          "internalType": "address",
          "name": "previousOwner",
          "type": "address"
        },
        {
          "indexed": true,
          "internalType": "address",
          "name": "newOwner",
          "type": "address"
        }
      ],
      "name": "OwnershipTransferred",
      "type": "event"
    },
    {
      "anonymous": false,
      "inputs": [
        {
          "indexed": true,
          "internalType": "address",
          "name": "province",
          "type": "address"
        }
      ],
      "name": "ProvincePoliceAdded",
      "type": "event"
    },
    {
      "anonymous": false,
      "inputs": [
        {
          "indexed": true,
          "internalType": "address",
          "name": "province",
          "type": "address"
        }
      ],
      "name": "ProvincePoliceRemoved",
      "type": "event"
    },
    {
      "anonymous": false,
      "inputs": [
        {
          "indexed": true,
          "internalType": "uint256",
          "name": "tokenId",
          "type": "uint256"
        },
        {
          "indexed": false,
          "internalType": "string",
          "name": "numberPlate",
          "type": "string"
        },
        {
          "indexed": true,
          "internalType": "address",
          "name": "createdBy",
          "type": "address"
        }
      ],
      "name": "RegisterVehicle",
      "type": "event"
    },
    {
      "anonymous": false,
      "inputs": [
        {
          "indexed": true,
          "internalType": "address",
          "name": "from",
          "type": "address"
        },
        {
          "indexed": true,
          "internalType": "address",
          "name": "to",
          "type": "address"
        },
        {
          "indexed": true,
          "internalType": "uint256",
          "name": "tokenId",
          "type": "uint256"
        }
      ],
      "name": "Transfer",
      "type": "event"
    },
    {
      "inputs": [
        {
          "internalType": "address",
          "name": "district",
          "type": "address"
        }
      ],
      "name": "addDistrictPolice",
      "outputs": [],
      "stateMutability": "nonpayable",
      "type": "function"
    },
    {
      "inputs": [
        {
          "internalType": "address",
          "name": "province",
          "type": "address"
        }
      ],
      "name": "addProvincialPolice",
      "outputs": [],
      "stateMutability": "nonpayable",
      "type": "function"
    },
    {
      "inputs": [
        {
          "internalType": "address",
          "name": "to",
          "type": "address"
        },
        {
          "internalType": "uint256",
          "name": "tokenId",
          "type": "uint256"
        }
      ],
      "name": "approve",
      "outputs": [],
      "stateMutability": "nonpayable",
      "type": "function"
    },
    {
      "inputs": [
        {
          "internalType": "address",
          "name": "owner",
          "type": "address"
        }
      ],
      "name": "balanceOf",
      "outputs": [
        {
          "internalType": "uint256",
          "name": "",
          "type": "uint256"
        }
      ],
      "stateMutability": "view",
      "type": "function"
    },
    {
      "inputs": [],
      "name": "checkAuthorityLevel",
      "outputs": [
        {
          "internalType": "string",
          "name": "",
          "type": "string"
        }
      ],
      "stateMutability": "view",
      "type": "function"
    },
    {
      "inputs": [
        {
          "internalType": "address",
          "name": "",
          "type": "address"
        },
        {
          "internalType": "address",
          "name": "",
          "type": "address"
        }
      ],
      "name": "districtPolice",
      "outputs": [
        {
          "internalType": "bool",
          "name": "",
          "type": "bool"
        }
      ],
      "stateMutability": "view",
      "type": "function"
    },
    {
      "inputs": [
        {
          "internalType": "uint256",
          "name": "tokenId",
          "type": "uint256"
        }
      ],
      "name": "getApproved",
      "outputs": [
        {
          "internalType": "address",
          "name": "",
          "type": "address"
        }
      ],
      "stateMutability": "view",
      "type": "function"
    },
    {
      "inputs": [],
      "name": "getDistricts",
      "outputs": [
        {
          "internalType": "address[]",
          "name": "",
          "type": "address[]"
        }
      ],
      "stateMutability": "view",
      "type": "function"
    },
    {
      "inputs": [],
      "name": "getProvinces",
      "outputs": [
        {
          "internalType": "address[]",
          "name": "",
          "type": "address[]"
        }
      ],
      "stateMutability": "view",
      "type": "function"
    },
    {
      "inputs": [
        {
          "internalType": "string",
          "name": "licensePlate",
          "type": "string"
        }
      ],
      "name": "getURIByNumberPlate",
      "outputs": [
        {
          "internalType": "string",
          "name": "",
          "type": "string"
        },
        {
          "internalType": "address",
          "name": "",
          "type": "address"
        },
        {
          "internalType": "uint256",
          "name": "",
          "type": "uint256"
        }
      ],
      "stateMutability": "view",
      "type": "function"
    },
    {
      "inputs": [
        {
          "internalType": "address",
          "name": "owner",
          "type": "address"
        },
        {
          "internalType": "address",
          "name": "operator",
          "type": "address"
        }
      ],
      "name": "isApprovedForAll",
      "outputs": [
        {
          "internalType": "bool",
          "name": "",
          "type": "bool"
        }
      ],
      "stateMutability": "view",
      "type": "function"
    },
    {
      "inputs": [],
      "name": "name",
      "outputs": [
        {
          "internalType": "string",
          "name": "",
          "type": "string"
        }
      ],
      "stateMutability": "view",
      "type": "function"
    },
    {
      "inputs": [],
      "name": "owner",
      "outputs": [
        {
          "internalType": "address",
          "name": "",
          "type": "address"
        }
      ],
      "stateMutability": "view",
      "type": "function"
    },
    {
      "inputs": [
        {
          "internalType": "uint256",
          "name": "tokenId",
          "type": "uint256"
        }
      ],
      "name": "ownerOf",
      "outputs": [
        {
          "internalType": "address",
          "name": "",
          "type": "address"
        }
      ],
      "stateMutability": "view",
      "type": "function"
    },
    {
      "inputs": [
        {
          "internalType": "address",
          "name": "",
          "type": "address"
        }
      ],
      "name": "provincialPolice",
      "outputs": [
        {
          "internalType": "bool",
          "name": "",
          "type": "bool"
        }
      ],
      "stateMutability": "view",
      "type": "function"
    },
    {
      "inputs": [
        {
          "internalType": "address",
          "name": "owner",
          "type": "address"
        },
        {
          "internalType": "string",
          "name": "tokenURI",
          "type": "string"
        },
        {
          "internalType": "string",
          "name": "numberPlate",
          "type": "string"
        }
      ],
      "name": "registerVehicle",
      "outputs": [],
      "stateMutability": "nonpayable",
      "type": "function"
    },
    {
      "inputs": [
        {
          "internalType": "address",
          "name": "district",
          "type": "address"
        }
      ],
      "name": "removeDistrictPolice",
      "outputs": [],
      "stateMutability": "nonpayable",
      "type": "function"
    },
    {
      "inputs": [
        {
          "internalType": "address",
          "name": "province",
          "type": "address"
        }
      ],
      "name": "removeProvincialPolice",
      "outputs": [],
      "stateMutability": "nonpayable",
      "type": "function"
    },
    {
      "inputs": [],
      "name": "renounceOwnership",
      "outputs": [],
      "stateMutability": "nonpayable",
      "type": "function"
    },
    {
      "inputs": [
        {
          "internalType": "address",
          "name": "from",
          "type": "address"
        },
        {
          "internalType": "address",
          "name": "to",
          "type": "address"
        },
        {
          "internalType": "uint256",
          "name": "tokenId",
          "type": "uint256"
        }
      ],
      "name": "safeTransferFrom",
      "outputs": [],
      "stateMutability": "nonpayable",
      "type": "function"
    },
    {
      "inputs": [
        {
          "internalType": "address",
          "name": "from",
          "type": "address"
        },
        {
          "internalType": "address",
          "name": "to",
          "type": "address"
        },
        {
          "internalType": "uint256",
          "name": "tokenId",
          "type": "uint256"
        },
        {
          "internalType": "bytes",
          "name": "data",
          "type": "bytes"
        }
      ],
      "name": "safeTransferFrom",
      "outputs": [],
      "stateMutability": "nonpayable",
      "type": "function"
    },
    {
      "inputs": [
        {
          "internalType": "address",
          "name": "operator",
          "type": "address"
        },
        {
          "internalType": "bool",
          "name": "approved",
          "type": "bool"
        }
      ],
      "name": "setApprovalForAll",
      "outputs": [],
      "stateMutability": "nonpayable",
      "type": "function"
    },
    {
      "inputs": [
        {
          "internalType": "bytes4",
          "name": "interfaceId",
          "type": "bytes4"
        }
      ],
      "name": "supportsInterface",
      "outputs": [
        {
          "internalType": "bool",
          "name": "",
          "type": "bool"
        }
      ],
      "stateMutability": "view",
      "type": "function"
    },
    {
      "inputs": [],
      "name": "symbol",
      "outputs": [
        {
          "internalType": "string",
          "name": "",
          "type": "string"
        }
      ],
      "stateMutability": "view",
      "type": "function"
    },
    {
      "inputs": [
        {
          "internalType": "uint256",
          "name": "tokenId",
          "type": "uint256"
        }
      ],
      "name": "tokenURI",
      "outputs": [
        {
          "internalType": "string",
          "name": "",
          "type": "string"
        }
      ],
      "stateMutability": "view",
      "type": "function"
    },
    {
      "inputs": [
        {
          "internalType": "address",
          "name": "from",
          "type": "address"
        },
        {
          "internalType": "address",
          "name": "to",
          "type": "address"
        },
        {
          "internalType": "uint256",
          "name": "tokenId",
          "type": "uint256"
        }
      ],
      "name": "transferFrom",
      "outputs": [],
      "stateMutability": "nonpayable",
      "type": "function"
    },
    {
      "inputs": [
        {
          "internalType": "address",
          "name": "newOwner",
          "type": "address"
        }
      ],
      "name": "transferOwnership",
      "outputs": [],
      "stateMutability": "nonpayable",
      "type": "function"
    }
  ],
  "bytecode": "0x60806040523480156200001157600080fd5b50336040518060400160405280601381526020017f56656869636c65526567697374726174696f6e000000000000000000000000008152506040518060400160405280600781526020017f56454849434c450000000000000000000000000000000000000000000000000081525081600090816200009091906200047a565b508060019081620000a291906200047a565b505050600073ffffffffffffffffffffffffffffffffffffffff168173ffffffffffffffffffffffffffffffffffffffff16036200011a5760006040517f1e4fbdf7000000000000000000000000000000000000000000000000000000008152600401620001119190620005a6565b60405180910390fd5b6200012b816200013a60201b60201c565b506001600881905550620005c3565b6000600760009054906101000a900473ffffffffffffffffffffffffffffffffffffffff16905081600760006101000a81548173ffffffffffffffffffffffffffffffffffffffff021916908373ffffffffffffffffffffffffffffffffffffffff1602179055508173ffffffffffffffffffffffffffffffffffffffff168173ffffffffffffffffffffffffffffffffffffffff167f8be0079c531659141344cd1fd0a4f28419497f9722a3daafe3b4186f6b6457e060405160405180910390a35050565b600081519050919050565b7f4e487b7100000000000000000000000000000000000000000000000000000000600052604160045260246000fd5b7f4e487b7100000000000000000000000000000000000000000000000000000000600052602260045260246000fd5b600060028204905060018216806200028257607f821691505b6020821081036200029857620002976200023a565b5b50919050565b60008190508160005260206000209050919050565b60006020601f8301049050919050565b600082821b905092915050565b600060088302620003027fffffffffffffffffffffffffffffffffffffffffffffffffffffffffffffffff82620002c3565b6200030e8683620002c3565b95508019841693508086168417925050509392505050565b6000819050919050565b6000819050919050565b60006200035b620003556200034f8462000326565b62000330565b62000326565b9050919050565b6000819050919050565b62000377836200033a565b6200038f620003868262000362565b848454620002d0565b825550505050565b600090565b620003a662000397565b620003b38184846200036c565b505050565b5b81811015620003db57620003cf6000826200039c565b600181019050620003b9565b5050565b601f8211156200042a57620003f4816200029e565b620003ff84620002b3565b810160208510156200040f578190505b620004276200041e85620002b3565b830182620003b8565b50505b505050565b600082821c905092915050565b60006200044f600019846008026200042f565b1980831691505092915050565b60006200046a83836200043c565b9150826002028217905092915050565b620004858262000200565b67ffffffffffffffff811115620004a157620004a06200020b565b5b620004ad825462000269565b620004ba828285620003df565b600060209050601f831160018114620004f25760008415620004dd578287015190505b620004e985826200045c565b86555062000559565b601f19841662000502866200029e565b60005b828110156200052c5784890151825560018201915060208501945060208101905062000505565b868310156200054c578489015162000548601f8916826200043c565b8355505b6001600288020188555050505b505050505050565b600073ffffffffffffffffffffffffffffffffffffffff82169050919050565b60006200058e8262000561565b9050919050565b620005a08162000581565b82525050565b6000602082019050620005bd600083018462000595565b92915050565b6143b380620005d36000396000f3fe608060405234801561001057600080fd5b50600436106101a95760003560e01c8063715018a6116100f9578063b88d4fde11610097578063c87b56dd11610071578063c87b56dd146104ba578063cc6168fc146104ea578063e985e9c514610506578063f2fde38b14610536576101a9565b8063b88d4fde14610450578063bda850731461046c578063c6f2a7271461049c576101a9565b806395d89b41116100d357806395d89b41146103dc5780639adc40c2146103fa578063a22cb46514610416578063a92563ed14610432576101a9565b8063715018a614610398578063831e5b20146103a25780638da5cb5b146103be576101a9565b806319623d261161016657806342842e0e1161014057806342842e0e146103005780636352211e1461031c5780636b1102c21461034c57806370a0823114610368576101a9565b806319623d26146102aa57806323b872dd146102c85780632eac96e9146102e4576101a9565b8063016e5d29146101ae57806301ffc9a7146101de57806306fdde031461020e578063081812fc1461022c578063095ea7b31461025c57806314a7803114610278575b600080fd5b6101c860048036038101906101c39190613206565b610552565b6040516101d5919061324e565b60405180910390f35b6101f860048036038101906101f391906132c1565b610572565b604051610205919061324e565b60405180910390f35b6102166105d3565b604051610223919061337e565b60405180910390f35b610246600480360381019061024191906133d6565b610665565b6040516102539190613412565b60405180910390f35b6102766004803603810190610271919061342d565b610681565b005b610292600480360381019061028d91906135a2565b610697565b6040516102a1939291906135fa565b60405180910390f35b6102b2610723565b6040516102bf91906136f6565b60405180910390f35b6102e260048036038101906102dd9190613718565b6107b9565b005b6102fe60048036038101906102f99190613206565b6108bb565b005b61031a60048036038101906103159190613718565b610ba3565b005b610336600480360381019061033191906133d6565b610bc3565b6040516103439190613412565b60405180910390f35b61036660048036038101906103619190613206565b610bd5565b005b610382600480360381019061037d9190613206565b610d6b565b60405161038f919061376b565b60405180910390f35b6103a0610e25565b005b6103bc60048036038101906103b79190613206565b610e39565b005b6103c661124b565b6040516103d39190613412565b60405180910390f35b6103e4611275565b6040516103f1919061337e565b60405180910390f35b610414600480360381019061040f9190613206565b611307565b005b610430600480360381019061042b91906137b2565b6117a9565b005b61043a6117bf565b60405161044791906136f6565b60405180910390f35b61046a60048036038101906104659190613893565b611916565b005b61048660048036038101906104819190613916565b61193b565b604051610493919061324e565b60405180910390f35b6104a461196a565b6040516104b1919061337e565b60405180910390f35b6104d460048036038101906104cf91906133d6565b611bdd565b6040516104e1919061337e565b60405180910390f35b61050460048036038101906104ff9190613956565b611cf0565b005b610520600480360381019061051b9190613916565b611fcb565b60405161052d919061324e565b60405180910390f35b610550600480360381019061054b9190613206565b61205f565b005b60096020528060005260406000206000915054906101000a900460ff1681565b6000634906490660e01b7bffffffffffffffffffffffffffffffffffffffffffffffffffffffff1916827bffffffffffffffffffffffffffffffffffffffffffffffffffffffff191614806105cc57506105cb826120e5565b5b9050919050565b6060600080546105e290613a10565b80601f016020809104026020016040519081016040528092919081815260200182805461060e90613a10565b801561065b5780601f106106305761010080835404028352916020019161065b565b820191906000526020600020905b81548152906001019060200180831161063e57829003601f168201915b5050505050905090565b6000610670826121c7565b5061067a8261224f565b9050919050565b610693828261068e61228c565b612294565b5050565b60606000806000600d856040516106ae9190613a7d565b908152602001604051809103902054905060008103610702576040517f08c379a00000000000000000000000000000000000000000000000000000000081526004016106f990613ae0565b60405180910390fd5b61070b81611bdd565b61071482610bc3565b82935093509350509193909250565b606061072d6122a6565b600b8054806020026020016040519081016040528092919081815260200182805480156107af57602002820191906000526020600020905b8160009054906101000a900473ffffffffffffffffffffffffffffffffffffffff1673ffffffffffffffffffffffffffffffffffffffff1681526020019060010190808311610765575b5050505050905090565b600073ffffffffffffffffffffffffffffffffffffffff168273ffffffffffffffffffffffffffffffffffffffff160361082b5760006040517f64a0ae920000000000000000000000000000000000000000000000000000000081526004016108229190613412565b60405180910390fd5b600061083f838361083a61228c565b61232d565b90508373ffffffffffffffffffffffffffffffffffffffff168173ffffffffffffffffffffffffffffffffffffffff16146108b5578382826040517f64283d7b0000000000000000000000000000000000000000000000000000000081526004016108ac93929190613b00565b60405180910390fd5b50505050565b600960003373ffffffffffffffffffffffffffffffffffffffff1673ffffffffffffffffffffffffffffffffffffffff16815260200190815260200160002060009054906101000a900460ff16610947576040517f08c379a000000000000000000000000000000000000000000000000000000000815260040161093e90613b83565b60405180910390fd5b600a60003373ffffffffffffffffffffffffffffffffffffffff1673ffffffffffffffffffffffffffffffffffffffff16815260200190815260200160002060008273ffffffffffffffffffffffffffffffffffffffff1673ffffffffffffffffffffffffffffffffffffffff16815260200190815260200160002060009054906101000a900460ff1615610a11576040517f08c379a0000000000000000000000000000000000000000000000000000000008152600401610a0890613bef565b60405180910390fd5b6001600a60003373ffffffffffffffffffffffffffffffffffffffff1673ffffffffffffffffffffffffffffffffffffffff16815260200190815260200160002060008373ffffffffffffffffffffffffffffffffffffffff1673ffffffffffffffffffffffffffffffffffffffff16815260200190815260200160002060006101000a81548160ff021916908315150217905550600c60003373ffffffffffffffffffffffffffffffffffffffff1673ffffffffffffffffffffffffffffffffffffffff168152602001908152602001600020819080600181540180825580915050600190039060005260206000200160009091909190916101000a81548173ffffffffffffffffffffffffffffffffffffffff021916908373ffffffffffffffffffffffffffffffffffffffff1602179055508073ffffffffffffffffffffffffffffffffffffffff163373ffffffffffffffffffffffffffffffffffffffff167f982c4d77881f1051de03d4a541da80c0fb29d31bfb54733069b8e03455fffead60405160405180910390a350565b610bbe83838360405180602001604052806000815250611916565b505050565b6000610bce826121c7565b9050919050565b610bdd6122a6565b600960008273ffffffffffffffffffffffffffffffffffffffff1673ffffffffffffffffffffffffffffffffffffffff16815260200190815260200160002060009054906101000a900460ff1615610c6a576040517f08c379a0000000000000000000000000000000000000000000000000000000008152600401610c6190613c5b565b60405180910390fd5b6001600960008373ffffffffffffffffffffffffffffffffffffffff1673ffffffffffffffffffffffffffffffffffffffff16815260200190815260200160002060006101000a81548160ff021916908315150217905550600b819080600181540180825580915050600190039060005260206000200160009091909190916101000a81548173ffffffffffffffffffffffffffffffffffffffff021916908373ffffffffffffffffffffffffffffffffffffffff1602179055508073ffffffffffffffffffffffffffffffffffffffff167fb76ac4db42ab10ecdc4f38f580c1affc4d428f2814d95954c44a9216b5cea1d160405160405180910390a250565b60008073ffffffffffffffffffffffffffffffffffffffff168273ffffffffffffffffffffffffffffffffffffffff1603610dde5760006040517f89c62b64000000000000000000000000000000000000000000000000000000008152600401610dd59190613412565b60405180910390fd5b600360008373ffffffffffffffffffffffffffffffffffffffff1673ffffffffffffffffffffffffffffffffffffffff168152602001908152602001600020549050919050565b610e2d6122a6565b610e376000612547565b565b600960003373ffffffffffffffffffffffffffffffffffffffff1673ffffffffffffffffffffffffffffffffffffffff16815260200190815260200160002060009054906101000a900460ff16610ec5576040517f08c379a0000000000000000000000000000000000000000000000000000000008152600401610ebc90613b83565b60405180910390fd5b600a60003373ffffffffffffffffffffffffffffffffffffffff1673ffffffffffffffffffffffffffffffffffffffff16815260200190815260200160002060008273ffffffffffffffffffffffffffffffffffffffff1673ffffffffffffffffffffffffffffffffffffffff16815260200190815260200160002060009054906101000a900460ff16610f8e576040517f08c379a0000000000000000000000000000000000000000000000000000000008152600401610f8590613cc7565b60405180910390fd5b6000600a60003373ffffffffffffffffffffffffffffffffffffffff1673ffffffffffffffffffffffffffffffffffffffff16815260200190815260200160002060008373ffffffffffffffffffffffffffffffffffffffff1673ffffffffffffffffffffffffffffffffffffffff16815260200190815260200160002060006101000a81548160ff0219169083151502179055506000600c60003373ffffffffffffffffffffffffffffffffffffffff1673ffffffffffffffffffffffffffffffffffffffff168152602001908152602001600020905060005b81805490508110156111ec578273ffffffffffffffffffffffffffffffffffffffff1682828154811061109f5761109e613ce7565b5b9060005260206000200160009054906101000a900473ffffffffffffffffffffffffffffffffffffffff1673ffffffffffffffffffffffffffffffffffffffff16036111d95781600183805490506110f79190613d45565b8154811061110857611107613ce7565b5b9060005260206000200160009054906101000a900473ffffffffffffffffffffffffffffffffffffffff1682828154811061114657611145613ce7565b5b9060005260206000200160006101000a81548173ffffffffffffffffffffffffffffffffffffffff021916908373ffffffffffffffffffffffffffffffffffffffff1602179055508180548061119f5761119e613d79565b5b6001900381819060005260206000200160006101000a81549073ffffffffffffffffffffffffffffffffffffffff021916905590556111ec565b80806111e490613da8565b915050611069565b508173ffffffffffffffffffffffffffffffffffffffff163373ffffffffffffffffffffffffffffffffffffffff167fbbbfc0b5e8c883407896952098ae6f110b5cecdd42ed6d8eaec33da382efdff760405160405180910390a35050565b6000600760009054906101000a900473ffffffffffffffffffffffffffffffffffffffff16905090565b60606001805461128490613a10565b80601f01602080910402602001604051908101604052809291908181526020018280546112b090613a10565b80156112fd5780601f106112d2576101008083540402835291602001916112fd565b820191906000526020600020905b8154815290600101906020018083116112e057829003601f168201915b5050505050905090565b61130f6122a6565b600960008273ffffffffffffffffffffffffffffffffffffffff1673ffffffffffffffffffffffffffffffffffffffff16815260200190815260200160002060009054906101000a900460ff1661139b576040517f08c379a000000000000000000000000000000000000000000000000000000000815260040161139290613e3c565b60405180910390fd5b6000600c60008373ffffffffffffffffffffffffffffffffffffffff1673ffffffffffffffffffffffffffffffffffffffff16815260200190815260200160002080548060200260200160405190810160405280929190818152602001828054801561145c57602002820191906000526020600020905b8160009054906101000a900473ffffffffffffffffffffffffffffffffffffffff1673ffffffffffffffffffffffffffffffffffffffff1681526020019060010190808311611412575b5050505050905060005b600b805490508110156115ef578273ffffffffffffffffffffffffffffffffffffffff16600b828154811061149e5761149d613ce7565b5b9060005260206000200160009054906101000a900473ffffffffffffffffffffffffffffffffffffffff1673ffffffffffffffffffffffffffffffffffffffff16036115dc57600b6001600b805490506114f89190613d45565b8154811061150957611508613ce7565b5b9060005260206000200160009054906101000a900473ffffffffffffffffffffffffffffffffffffffff16600b828154811061154857611547613ce7565b5b9060005260206000200160006101000a81548173ffffffffffffffffffffffffffffffffffffffff021916908373ffffffffffffffffffffffffffffffffffffffff160217905550600b8054806115a2576115a1613d79565b5b6001900381819060005260206000200160006101000a81549073ffffffffffffffffffffffffffffffffffffffff021916905590556115ef565b80806115e790613da8565b915050611466565b5060005b81518110156116be576000600a60008573ffffffffffffffffffffffffffffffffffffffff1673ffffffffffffffffffffffffffffffffffffffff168152602001908152602001600020600084848151811061165257611651613ce7565b5b602002602001015173ffffffffffffffffffffffffffffffffffffffff1673ffffffffffffffffffffffffffffffffffffffff16815260200190815260200160002060006101000a81548160ff02191690831515021790555080806116b690613da8565b9150506115f3565b506000600960008473ffffffffffffffffffffffffffffffffffffffff1673ffffffffffffffffffffffffffffffffffffffff16815260200190815260200160002060006101000a81548160ff021916908315150217905550600c60008373ffffffffffffffffffffffffffffffffffffffff1673ffffffffffffffffffffffffffffffffffffffff16815260200190815260200160002060006117629190613156565b8173ffffffffffffffffffffffffffffffffffffffff167fe3db99a7f542a0e07e8fe7f396a5a522d033c2f7d041a6c0e3f9bddc7173f74760405160405180910390a25050565b6117bb6117b461228c565b838361260d565b5050565b6060600960003373ffffffffffffffffffffffffffffffffffffffff1673ffffffffffffffffffffffffffffffffffffffff16815260200190815260200160002060009054906101000a900460ff1661184d576040517f08c379a000000000000000000000000000000000000000000000000000000000815260040161184490613ea8565b60405180910390fd5b600c60003373ffffffffffffffffffffffffffffffffffffffff1673ffffffffffffffffffffffffffffffffffffffff16815260200190815260200160002080548060200260200160405190810160405280929190818152602001828054801561190c57602002820191906000526020600020905b8160009054906101000a900473ffffffffffffffffffffffffffffffffffffffff1673ffffffffffffffffffffffffffffffffffffffff16815260200190600101908083116118c2575b5050505050905090565b6119218484846107b9565b61193561192c61228c565b8585858561277c565b50505050565b600a6020528160005260406000206020528060005260406000206000915091509054906101000a900460ff1681565b606061197461124b565b73ffffffffffffffffffffffffffffffffffffffff163373ffffffffffffffffffffffffffffffffffffffff16036119e3576040518060400160405280600581526020017f4f574e45520000000000000000000000000000000000000000000000000000008152509050611bda565b600960003373ffffffffffffffffffffffffffffffffffffffff1673ffffffffffffffffffffffffffffffffffffffff16815260200190815260200160002060009054906101000a900460ff1615611a72576040518060400160405280600881526020017f50524f56494e43450000000000000000000000000000000000000000000000008152509050611bda565b60005b600b80549050811015611ba057600a6000600b8381548110611a9a57611a99613ce7565b5b9060005260206000200160009054906101000a900473ffffffffffffffffffffffffffffffffffffffff1673ffffffffffffffffffffffffffffffffffffffff1673ffffffffffffffffffffffffffffffffffffffff16815260200190815260200160002060003373ffffffffffffffffffffffffffffffffffffffff1673ffffffffffffffffffffffffffffffffffffffff16815260200190815260200160002060009054906101000a900460ff1615611b8d576040518060400160405280600881526020017f4449535452494354000000000000000000000000000000000000000000000000815250915050611bda565b8080611b9890613da8565b915050611a75565b506040518060400160405280600481526020017f555345520000000000000000000000000000000000000000000000000000000081525090505b90565b6060611be8826121c7565b506000600660008481526020019081526020016000208054611c0990613a10565b80601f0160208091040260200160405190810160405280929190818152602001828054611c3590613a10565b8015611c825780601f10611c5757610100808354040283529160200191611c82565b820191906000526020600020905b815481529060010190602001808311611c6557829003601f168201915b505050505090506000611c9361292d565b90506000815103611ca8578192505050611ceb565b600082511115611cdd578082604051602001611cc5929190613ec8565b60405160208183030381529060405292505050611ceb565b611ce684612944565b925050505b919050565b600080600090505b600b80549050811015611e7d5760096000600b8381548110611d1d57611d1c613ce7565b5b9060005260206000200160009054906101000a900473ffffffffffffffffffffffffffffffffffffffff1673ffffffffffffffffffffffffffffffffffffffff1673ffffffffffffffffffffffffffffffffffffffff16815260200190815260200160002060009054906101000a900460ff168015611e605750600a6000600b8381548110611daf57611dae613ce7565b5b9060005260206000200160009054906101000a900473ffffffffffffffffffffffffffffffffffffffff1673ffffffffffffffffffffffffffffffffffffffff1673ffffffffffffffffffffffffffffffffffffffff16815260200190815260200160002060003373ffffffffffffffffffffffffffffffffffffffff1673ffffffffffffffffffffffffffffffffffffffff16815260200190815260200160002060009054906101000a900460ff165b15611e6a57600191505b8080611e7590613da8565b915050611cf8565b5080611ebe576040517f08c379a0000000000000000000000000000000000000000000000000000000008152600401611eb590613f38565b60405180910390fd5b6000600d83604051611ed09190613a7d565b90815260200160405180910390205414611f1f576040517f08c379a0000000000000000000000000000000000000000000000000000000008152600401611f1690613fa4565b60405180910390fd5b6000600854905060086000815480929190611f3990613da8565b9190505550611f4885826129ad565b611f5281856129cb565b80600d84604051611f639190613a7d565b9081526020016040518091039020819055503373ffffffffffffffffffffffffffffffffffffffff16817fae0d0d5f8ab971abe40e430ecf5ad9a5ef1790a7191f6092066fb5160c910b9385604051611fbc919061337e565b60405180910390a35050505050565b6000600560008473ffffffffffffffffffffffffffffffffffffffff1673ffffffffffffffffffffffffffffffffffffffff16815260200190815260200160002060008373ffffffffffffffffffffffffffffffffffffffff1673ffffffffffffffffffffffffffffffffffffffff16815260200190815260200160002060009054906101000a900460ff16905092915050565b6120676122a6565b600073ffffffffffffffffffffffffffffffffffffffff168173ffffffffffffffffffffffffffffffffffffffff16036120d95760006040517f1e4fbdf70000000000000000000000000000000000000000000000000000000081526004016120d09190613412565b60405180910390fd5b6120e281612547565b50565b60007f80ac58cd000000000000000000000000000000000000000000000000000000007bffffffffffffffffffffffffffffffffffffffffffffffffffffffff1916827bffffffffffffffffffffffffffffffffffffffffffffffffffffffff191614806121b057507f5b5e139f000000000000000000000000000000000000000000000000000000007bffffffffffffffffffffffffffffffffffffffffffffffffffffffff1916827bffffffffffffffffffffffffffffffffffffffffffffffffffffffff1916145b806121c057506121bf82612a27565b5b9050919050565b6000806121d383612a91565b9050600073ffffffffffffffffffffffffffffffffffffffff168173ffffffffffffffffffffffffffffffffffffffff160361224657826040517f7e27328900000000000000000000000000000000000000000000000000000000815260040161223d919061376b565b60405180910390fd5b80915050919050565b60006004600083815260200190815260200160002060009054906101000a900473ffffffffffffffffffffffffffffffffffffffff169050919050565b600033905090565b6122a18383836001612ace565b505050565b6122ae61228c565b73ffffffffffffffffffffffffffffffffffffffff166122cc61124b565b73ffffffffffffffffffffffffffffffffffffffff161461232b576122ef61228c565b6040517f118cdaa70000000000000000000000000000000000000000000000000000000081526004016123229190613412565b60405180910390fd5b565b60008061233984612a91565b9050600073ffffffffffffffffffffffffffffffffffffffff168373ffffffffffffffffffffffffffffffffffffffff161461237b5761237a818486612c93565b5b600073ffffffffffffffffffffffffffffffffffffffff168173ffffffffffffffffffffffffffffffffffffffff161461240c576123bd600085600080612ace565b6001600360008373ffffffffffffffffffffffffffffffffffffffff1673ffffffffffffffffffffffffffffffffffffffff168152602001908152602001600020600082825403925050819055505b600073ffffffffffffffffffffffffffffffffffffffff168573ffffffffffffffffffffffffffffffffffffffff161461248f576001600360008773ffffffffffffffffffffffffffffffffffffffff1673ffffffffffffffffffffffffffffffffffffffff168152602001908152602001600020600082825401925050819055505b846002600086815260200190815260200160002060006101000a81548173ffffffffffffffffffffffffffffffffffffffff021916908373ffffffffffffffffffffffffffffffffffffffff160217905550838573ffffffffffffffffffffffffffffffffffffffff168273ffffffffffffffffffffffffffffffffffffffff167fddf252ad1be2c89b69c2b068fc378daa952ba7f163c4a11628f55a4df523b3ef60405160405180910390a4809150509392505050565b6000600760009054906101000a900473ffffffffffffffffffffffffffffffffffffffff16905081600760006101000a81548173ffffffffffffffffffffffffffffffffffffffff021916908373ffffffffffffffffffffffffffffffffffffffff1602179055508173ffffffffffffffffffffffffffffffffffffffff168173ffffffffffffffffffffffffffffffffffffffff167f8be0079c531659141344cd1fd0a4f28419497f9722a3daafe3b4186f6b6457e060405160405180910390a35050565b600073ffffffffffffffffffffffffffffffffffffffff168273ffffffffffffffffffffffffffffffffffffffff160361267e57816040517f5b08ba180000000000000000000000000000000000000000000000000000000081526004016126759190613412565b60405180910390fd5b80600560008573ffffffffffffffffffffffffffffffffffffffff1673ffffffffffffffffffffffffffffffffffffffff16815260200190815260200160002060008473ffffffffffffffffffffffffffffffffffffffff1673ffffffffffffffffffffffffffffffffffffffff16815260200190815260200160002060006101000a81548160ff0219169083151502179055508173ffffffffffffffffffffffffffffffffffffffff168373ffffffffffffffffffffffffffffffffffffffff167f17307eab39ab6107e8899845ad3d59bd9653f200f220920489ca2b5937696c318360405161276f919061324e565b60405180910390a3505050565b60008373ffffffffffffffffffffffffffffffffffffffff163b1115612926578273ffffffffffffffffffffffffffffffffffffffff1663150b7a02868685856040518563ffffffff1660e01b81526004016127db9493929190614019565b6020604051808303816000875af192505050801561281757506040513d601f19601f82011682018060405250810190612814919061407a565b60015b61289b573d8060008114612847576040519150601f19603f3d011682016040523d82523d6000602084013e61284c565b606091505b50600081510361289357836040517f64a0ae9200000000000000000000000000000000000000000000000000000000815260040161288a9190613412565b60405180910390fd5b805181602001fd5b63150b7a0260e01b7bffffffffffffffffffffffffffffffffffffffffffffffffffffffff1916817bffffffffffffffffffffffffffffffffffffffffffffffffffffffff19161461292457836040517f64a0ae9200000000000000000000000000000000000000000000000000000000815260040161291b9190613412565b60405180910390fd5b505b5050505050565b606060405180602001604052806000815250905090565b606061294f826121c7565b50600061295a61292d565b9050600081511161297a57604051806020016040528060008152506129a5565b8061298484612d57565b604051602001612995929190613ec8565b6040516020818303038152906040525b915050919050565b6129c7828260405180602001604052806000815250612e25565b5050565b806006600084815260200190815260200160002090816129eb9190614253565b507ff8e1a15aba9398e019f0b49df1a4fde98ee17ae345cb5f6b5e2c27f5033e8ce782604051612a1b919061376b565b60405180910390a15050565b60007f01ffc9a7000000000000000000000000000000000000000000000000000000007bffffffffffffffffffffffffffffffffffffffffffffffffffffffff1916827bffffffffffffffffffffffffffffffffffffffffffffffffffffffff1916149050919050565b60006002600083815260200190815260200160002060009054906101000a900473ffffffffffffffffffffffffffffffffffffffff169050919050565b8080612b075750600073ffffffffffffffffffffffffffffffffffffffff168273ffffffffffffffffffffffffffffffffffffffff1614155b15612c3b576000612b17846121c7565b9050600073ffffffffffffffffffffffffffffffffffffffff168373ffffffffffffffffffffffffffffffffffffffff1614158015612b8257508273ffffffffffffffffffffffffffffffffffffffff168173ffffffffffffffffffffffffffffffffffffffff1614155b8015612b955750612b938184611fcb565b155b15612bd757826040517fa9fbf51f000000000000000000000000000000000000000000000000000000008152600401612bce9190613412565b60405180910390fd5b8115612c3957838573ffffffffffffffffffffffffffffffffffffffff168273ffffffffffffffffffffffffffffffffffffffff167f8c5be1e5ebec7d5bd14f71427d1e84f3dd0314c0f7b2291e5b200ac8c7c3b92560405160405180910390a45b505b836004600085815260200190815260200160002060006101000a81548173ffffffffffffffffffffffffffffffffffffffff021916908373ffffffffffffffffffffffffffffffffffffffff16021790555050505050565b612c9e838383612e49565b612d5257600073ffffffffffffffffffffffffffffffffffffffff168373ffffffffffffffffffffffffffffffffffffffff1603612d1357806040517f7e273289000000000000000000000000000000000000000000000000000000008152600401612d0a919061376b565b60405180910390fd5b81816040517f177e802f000000000000000000000000000000000000000000000000000000008152600401612d49929190614325565b60405180910390fd5b505050565b606060006001612d6684612f0a565b01905060008167ffffffffffffffff811115612d8557612d84613477565b5b6040519080825280601f01601f191660200182016040528015612db75781602001600182028036833780820191505090505b509050600082602001820190505b600115612e1a578080600190039150507f3031323334353637383961626364656600000000000000000000000000000000600a86061a8153600a8581612e0e57612e0d61434e565b5b04945060008503612dc5575b819350505050919050565b612e2f838361305d565b612e44612e3a61228c565b600085858561277c565b505050565b60008073ffffffffffffffffffffffffffffffffffffffff168373ffffffffffffffffffffffffffffffffffffffff1614158015612f0157508273ffffffffffffffffffffffffffffffffffffffff168473ffffffffffffffffffffffffffffffffffffffff161480612ec25750612ec18484611fcb565b5b80612f0057508273ffffffffffffffffffffffffffffffffffffffff16612ee88361224f565b73ffffffffffffffffffffffffffffffffffffffff16145b5b90509392505050565b600080600090507a184f03e93ff9f4daa797ed6e38ed64bf6a1f0100000000000000008310612f68577a184f03e93ff9f4daa797ed6e38ed64bf6a1f0100000000000000008381612f5e57612f5d61434e565b5b0492506040810190505b6d04ee2d6d415b85acef81000000008310612fa5576d04ee2d6d415b85acef81000000008381612f9b57612f9a61434e565b5b0492506020810190505b662386f26fc100008310612fd457662386f26fc100008381612fca57612fc961434e565b5b0492506010810190505b6305f5e1008310612ffd576305f5e1008381612ff357612ff261434e565b5b0492506008810190505b61271083106130225761271083816130185761301761434e565b5b0492506004810190505b60648310613045576064838161303b5761303a61434e565b5b0492506002810190505b600a8310613054576001810190505b80915050919050565b600073ffffffffffffffffffffffffffffffffffffffff168273ffffffffffffffffffffffffffffffffffffffff16036130cf5760006040517f64a0ae920000000000000000000000000000000000000000000000000000000081526004016130c69190613412565b60405180910390fd5b60006130dd8383600061232d565b9050600073ffffffffffffffffffffffffffffffffffffffff168173ffffffffffffffffffffffffffffffffffffffff16146131515760006040517f73c6ac6e0000000000000000000000000000000000000000000000000000000081526004016131489190613412565b60405180910390fd5b505050565b50805460008255906000526020600020908101906131749190613177565b50565b5b80821115613190576000816000905550600101613178565b5090565b6000604051905090565b600080fd5b600080fd5b600073ffffffffffffffffffffffffffffffffffffffff82169050919050565b60006131d3826131a8565b9050919050565b6131e3816131c8565b81146131ee57600080fd5b50565b600081359050613200816131da565b92915050565b60006020828403121561321c5761321b61319e565b5b600061322a848285016131f1565b91505092915050565b60008115159050919050565b61324881613233565b82525050565b6000602082019050613263600083018461323f565b92915050565b60007fffffffff0000000000000000000000000000000000000000000000000000000082169050919050565b61329e81613269565b81146132a957600080fd5b50565b6000813590506132bb81613295565b92915050565b6000602082840312156132d7576132d661319e565b5b60006132e5848285016132ac565b91505092915050565b600081519050919050565b600082825260208201905092915050565b60005b8381101561332857808201518184015260208101905061330d565b60008484015250505050565b6000601f19601f8301169050919050565b6000613350826132ee565b61335a81856132f9565b935061336a81856020860161330a565b61337381613334565b840191505092915050565b600060208201905081810360008301526133988184613345565b905092915050565b6000819050919050565b6133b3816133a0565b81146133be57600080fd5b50565b6000813590506133d0816133aa565b92915050565b6000602082840312156133ec576133eb61319e565b5b60006133fa848285016133c1565b91505092915050565b61340c816131c8565b82525050565b60006020820190506134276000830184613403565b92915050565b600080604083850312156134445761344361319e565b5b6000613452858286016131f1565b9250506020613463858286016133c1565b9150509250929050565b600080fd5b600080fd5b7f4e487b7100000000000000000000000000000000000000000000000000000000600052604160045260246000fd5b6134af82613334565b810181811067ffffffffffffffff821117156134ce576134cd613477565b5b80604052505050565b60006134e1613194565b90506134ed82826134a6565b919050565b600067ffffffffffffffff82111561350d5761350c613477565b5b61351682613334565b9050602081019050919050565b82818337600083830152505050565b6000613545613540846134f2565b6134d7565b90508281526020810184848401111561356157613560613472565b5b61356c848285613523565b509392505050565b600082601f8301126135895761358861346d565b5b8135613599848260208601613532565b91505092915050565b6000602082840312156135b8576135b761319e565b5b600082013567ffffffffffffffff8111156135d6576135d56131a3565b5b6135e284828501613574565b91505092915050565b6135f4816133a0565b82525050565b600060608201905081810360008301526136148186613345565b90506136236020830185613403565b61363060408301846135eb565b949350505050565b600081519050919050565b600082825260208201905092915050565b6000819050602082019050919050565b61366d816131c8565b82525050565b600061367f8383613664565b60208301905092915050565b6000602082019050919050565b60006136a382613638565b6136ad8185613643565b93506136b883613654565b8060005b838110156136e95781516136d08882613673565b97506136db8361368b565b9250506001810190506136bc565b5085935050505092915050565b600060208201905081810360008301526137108184613698565b905092915050565b6000806000606084860312156137315761373061319e565b5b600061373f868287016131f1565b9350506020613750868287016131f1565b9250506040613761868287016133c1565b9150509250925092565b600060208201905061378060008301846135eb565b92915050565b61378f81613233565b811461379a57600080fd5b50565b6000813590506137ac81613786565b92915050565b600080604083850312156137c9576137c861319e565b5b60006137d7858286016131f1565b92505060206137e88582860161379d565b9150509250929050565b600067ffffffffffffffff82111561380d5761380c613477565b5b61381682613334565b9050602081019050919050565b6000613836613831846137f2565b6134d7565b90508281526020810184848401111561385257613851613472565b5b61385d848285613523565b509392505050565b600082601f83011261387a5761387961346d565b5b813561388a848260208601613823565b91505092915050565b600080600080608085870312156138ad576138ac61319e565b5b60006138bb878288016131f1565b94505060206138cc878288016131f1565b93505060406138dd878288016133c1565b925050606085013567ffffffffffffffff8111156138fe576138fd6131a3565b5b61390a87828801613865565b91505092959194509250565b6000806040838503121561392d5761392c61319e565b5b600061393b858286016131f1565b925050602061394c858286016131f1565b9150509250929050565b60008060006060848603121561396f5761396e61319e565b5b600061397d868287016131f1565b935050602084013567ffffffffffffffff81111561399e5761399d6131a3565b5b6139aa86828701613574565b925050604084013567ffffffffffffffff8111156139cb576139ca6131a3565b5b6139d786828701613574565b9150509250925092565b7f4e487b7100000000000000000000000000000000000000000000000000000000600052602260045260246000fd5b60006002820490506001821680613a2857607f821691505b602082108103613a3b57613a3a6139e1565b5b50919050565b600081905092915050565b6000613a57826132ee565b613a618185613a41565b9350613a7181856020860161330a565b80840191505092915050565b6000613a898284613a4c565b915081905092915050565b7f4e756d62657220706c617465206e6f7420666f756e642e000000000000000000600082015250565b6000613aca6017836132f9565b9150613ad582613a94565b602082019050919050565b60006020820190508181036000830152613af981613abd565b9050919050565b6000606082019050613b156000830186613403565b613b2260208301856135eb565b613b2f6040830184613403565b949350505050565b7f4e6f7420612070726f76696e6369616c20706f6c6963652e0000000000000000600082015250565b6000613b6d6018836132f9565b9150613b7882613b37565b602082019050919050565b60006020820190508181036000830152613b9c81613b60565b9050919050565b7f446973747269637420616c7265616479206578697374732e0000000000000000600082015250565b6000613bd96018836132f9565b9150613be482613ba3565b602082019050919050565b60006020820190508181036000830152613c0881613bcc565b9050919050565b7f50726f76696e636520616c7265616479206578697374732e0000000000000000600082015250565b6000613c456018836132f9565b9150613c5082613c0f565b602082019050919050565b60006020820190508181036000830152613c7481613c38565b9050919050565b7f4469737472696374206e6f7420666f756e642e00000000000000000000000000600082015250565b6000613cb16013836132f9565b9150613cbc82613c7b565b602082019050919050565b60006020820190508181036000830152613ce081613ca4565b9050919050565b7f4e487b7100000000000000000000000000000000000000000000000000000000600052603260045260246000fd5b7f4e487b7100000000000000000000000000000000000000000000000000000000600052601160045260246000fd5b6000613d50826133a0565b9150613d5b836133a0565b9250828203905081811115613d7357613d72613d16565b5b92915050565b7f4e487b7100000000000000000000000000000000000000000000000000000000600052603160045260246000fd5b6000613db3826133a0565b91507fffffffffffffffffffffffffffffffffffffffffffffffffffffffffffffffff8203613de557613de4613d16565b5b600182019050919050565b7f50726f76696e6365206e6f7420726567697374657265642e0000000000000000600082015250565b6000613e266018836132f9565b9150613e3182613df0565b602082019050919050565b60006020820190508181036000830152613e5581613e19565b9050919050565b7f4e6f74206d7573742070726f76696e6365000000000000000000000000000000600082015250565b6000613e926011836132f9565b9150613e9d82613e5c565b602082019050919050565b60006020820190508181036000830152613ec181613e85565b9050919050565b6000613ed48285613a4c565b9150613ee08284613a4c565b91508190509392505050565b7f4e6f7420612076616c696420646973747269637420706f6c6963652e00000000600082015250565b6000613f22601c836132f9565b9150613f2d82613eec565b602082019050919050565b60006020820190508181036000830152613f5181613f15565b9050919050565b7f4e756d62657220706c61746520616c726561647920726567697374657265642e600082015250565b6000613f8e6020836132f9565b9150613f9982613f58565b602082019050919050565b60006020820190508181036000830152613fbd81613f81565b9050919050565b600081519050919050565b600082825260208201905092915050565b6000613feb82613fc4565b613ff58185613fcf565b935061400581856020860161330a565b61400e81613334565b840191505092915050565b600060808201905061402e6000830187613403565b61403b6020830186613403565b61404860408301856135eb565b818103606083015261405a8184613fe0565b905095945050505050565b60008151905061407481613295565b92915050565b6000602082840312156140905761408f61319e565b5b600061409e84828501614065565b91505092915050565b60008190508160005260206000209050919050565b60006020601f8301049050919050565b600082821b905092915050565b6000600883026141097fffffffffffffffffffffffffffffffffffffffffffffffffffffffffffffffff826140cc565b61411386836140cc565b95508019841693508086168417925050509392505050565b6000819050919050565b600061415061414b614146846133a0565b61412b565b6133a0565b9050919050565b6000819050919050565b61416a83614135565b61417e61417682614157565b8484546140d9565b825550505050565b600090565b614193614186565b61419e818484614161565b505050565b5b818110156141c2576141b760008261418b565b6001810190506141a4565b5050565b601f821115614207576141d8816140a7565b6141e1846140bc565b810160208510156141f0578190505b6142046141fc856140bc565b8301826141a3565b50505b505050565b600082821c905092915050565b600061422a6000198460080261420c565b1980831691505092915050565b60006142438383614219565b9150826002028217905092915050565b61425c826132ee565b67ffffffffffffffff81111561427557614274613477565b5b61427f8254613a10565b61428a8282856141c6565b600060209050601f8311600181146142bd57600084156142ab578287015190505b6142b58582614237565b86555061431d565b601f1984166142cb866140a7565b60005b828110156142f3578489015182556001820191506020850194506020810190506142ce565b86831015614310578489015161430c601f891682614219565b8355505b6001600288020188555050505b505050505050565b600060408201905061433a6000830185613403565b61434760208301846135eb565b9392505050565b7f4e487b7100000000000000000000000000000000000000000000000000000000600052601260045260246000fdfea2646970667358221220fd18d281a4e400f84d5bce2ae44e1ae421f7741f2d11c615bffcaa554a2d465664736f6c63430008140033",
  "linkReferences": {},
  "deployedLinkReferences": {}
}